{
  "_format": "hh-sol-artifact-1",
  "contractName": "NFTMarketplace",
  "sourceName": "contracts/NFTMarketplace.sol",
  "abi": [
    {
      "inputs": [],
      "stateMutability": "nonpayable",
      "type": "constructor"
    },
    {
      "anonymous": false,
      "inputs": [
        {
          "indexed": true,
          "internalType": "address",
          "name": "owner",
          "type": "address"
        },
        {
          "indexed": true,
          "internalType": "address",
          "name": "approved",
          "type": "address"
        },
        {
          "indexed": true,
          "internalType": "uint256",
          "name": "tokenId",
          "type": "uint256"
        }
      ],
      "name": "Approval",
      "type": "event"
    },
    {
      "anonymous": false,
      "inputs": [
        {
          "indexed": true,
          "internalType": "address",
          "name": "owner",
          "type": "address"
        },
        {
          "indexed": true,
          "internalType": "address",
          "name": "operator",
          "type": "address"
        },
        {
          "indexed": false,
          "internalType": "bool",
          "name": "approved",
          "type": "bool"
        }
      ],
      "name": "ApprovalForAll",
      "type": "event"
    },
    {
      "anonymous": false,
      "inputs": [
        {
          "indexed": true,
          "internalType": "uint256",
          "name": "tokenId",
          "type": "uint256"
        },
        {
          "indexed": false,
          "internalType": "address",
          "name": "seller",
          "type": "address"
        },
        {
          "indexed": false,
          "internalType": "address",
          "name": "owner",
          "type": "address"
        },
        {
          "indexed": false,
          "internalType": "uint256",
          "name": "price",
          "type": "uint256"
        },
        {
          "indexed": false,
          "internalType": "bool",
          "name": "sold",
          "type": "bool"
        }
      ],
      "name": "ItemCreated",
      "type": "event"
    },
    {
      "anonymous": false,
      "inputs": [
        {
          "indexed": true,
          "internalType": "address",
          "name": "from",
          "type": "address"
        },
        {
          "indexed": true,
          "internalType": "address",
          "name": "to",
          "type": "address"
        },
        {
          "indexed": true,
          "internalType": "uint256",
          "name": "tokenId",
          "type": "uint256"
        }
      ],
      "name": "Transfer",
      "type": "event"
    },
    {
      "inputs": [],
      "name": "_baseTokenURI",
      "outputs": [
        {
          "internalType": "string",
          "name": "",
          "type": "string"
        }
      ],
      "stateMutability": "view",
      "type": "function"
    },
    {
      "inputs": [
        {
          "internalType": "address",
          "name": "to",
          "type": "address"
        },
        {
          "internalType": "uint256",
          "name": "tokenId",
          "type": "uint256"
        }
      ],
      "name": "approve",
      "outputs": [],
      "stateMutability": "nonpayable",
      "type": "function"
    },
    {
      "inputs": [
        {
          "internalType": "address",
          "name": "owner",
          "type": "address"
        }
      ],
      "name": "balanceOf",
      "outputs": [
        {
          "internalType": "uint256",
          "name": "",
          "type": "uint256"
        }
      ],
      "stateMutability": "view",
      "type": "function"
    },
    {
      "inputs": [
        {
          "internalType": "uint256",
          "name": "tokenId",
          "type": "uint256"
        },
        {
          "internalType": "uint256",
          "name": "price",
          "type": "uint256"
        }
      ],
      "name": "createMarketItem",
      "outputs": [],
      "stateMutability": "payable",
      "type": "function"
    },
    {
      "inputs": [
        {
          "internalType": "uint256",
          "name": "tokenId",
          "type": "uint256"
        }
      ],
      "name": "createMarketSale",
      "outputs": [],
      "stateMutability": "payable",
      "type": "function"
    },
    {
      "inputs": [
        {
          "internalType": "uint256",
          "name": "amount",
          "type": "uint256"
        }
      ],
      "name": "createToken",
      "outputs": [],
      "stateMutability": "payable",
      "type": "function"
    },
    {
      "inputs": [],
      "name": "fetchItemsListed",
      "outputs": [
        {
          "components": [
            {
              "internalType": "uint256",
              "name": "tokenId",
              "type": "uint256"
            },
            {
              "internalType": "address payable",
              "name": "seller",
              "type": "address"
            },
            {
              "internalType": "address payable",
              "name": "owner",
              "type": "address"
            },
            {
              "internalType": "uint256",
              "name": "price",
              "type": "uint256"
            },
            {
              "internalType": "bool",
              "name": "sold",
              "type": "bool"
            }
          ],
          "internalType": "struct NFTMarketplace.Item[]",
          "name": "",
          "type": "tuple[]"
        }
      ],
      "stateMutability": "view",
      "type": "function"
    },
    {
      "inputs": [],
      "name": "fetchMarketItems",
      "outputs": [
        {
          "components": [
            {
              "internalType": "uint256",
              "name": "tokenId",
              "type": "uint256"
            },
            {
              "internalType": "address payable",
              "name": "seller",
              "type": "address"
            },
            {
              "internalType": "address payable",
              "name": "owner",
              "type": "address"
            },
            {
              "internalType": "uint256",
              "name": "price",
              "type": "uint256"
            },
            {
              "internalType": "bool",
              "name": "sold",
              "type": "bool"
            }
          ],
          "internalType": "struct NFTMarketplace.Item[]",
          "name": "",
          "type": "tuple[]"
        }
      ],
      "stateMutability": "view",
      "type": "function"
    },
    {
      "inputs": [],
      "name": "fetchMyNFTs",
      "outputs": [
        {
          "components": [
            {
              "internalType": "uint256",
              "name": "tokenId",
              "type": "uint256"
            },
            {
              "internalType": "address payable",
              "name": "seller",
              "type": "address"
            },
            {
              "internalType": "address payable",
              "name": "owner",
              "type": "address"
            },
            {
              "internalType": "uint256",
              "name": "price",
              "type": "uint256"
            },
            {
              "internalType": "bool",
              "name": "sold",
              "type": "bool"
            }
          ],
          "internalType": "struct NFTMarketplace.Item[]",
          "name": "",
          "type": "tuple[]"
        }
      ],
      "stateMutability": "view",
      "type": "function"
    },
    {
      "inputs": [
        {
          "internalType": "uint256",
          "name": "tokenId",
          "type": "uint256"
        }
      ],
      "name": "getApproved",
      "outputs": [
        {
          "internalType": "address",
          "name": "",
          "type": "address"
        }
      ],
      "stateMutability": "view",
      "type": "function"
    },
    {
      "inputs": [],
      "name": "getListingPrice",
      "outputs": [
        {
          "internalType": "uint256",
          "name": "",
          "type": "uint256"
        }
      ],
      "stateMutability": "view",
      "type": "function"
    },
    {
      "inputs": [],
      "name": "getMintPrice",
      "outputs": [
        {
          "internalType": "uint256",
          "name": "",
          "type": "uint256"
        }
      ],
      "stateMutability": "view",
      "type": "function"
    },
    {
      "inputs": [
        {
          "internalType": "address",
          "name": "owner",
          "type": "address"
        },
        {
          "internalType": "address",
          "name": "operator",
          "type": "address"
        }
      ],
      "name": "isApprovedForAll",
      "outputs": [
        {
          "internalType": "bool",
          "name": "",
          "type": "bool"
        }
      ],
      "stateMutability": "view",
      "type": "function"
    },
    {
      "inputs": [],
      "name": "name",
      "outputs": [
        {
          "internalType": "string",
          "name": "",
          "type": "string"
        }
      ],
      "stateMutability": "view",
      "type": "function"
    },
    {
      "inputs": [
        {
          "internalType": "uint256",
          "name": "tokenId",
          "type": "uint256"
        }
      ],
      "name": "ownerOf",
      "outputs": [
        {
          "internalType": "address",
          "name": "",
          "type": "address"
        }
      ],
      "stateMutability": "view",
      "type": "function"
    },
    {
      "inputs": [
        {
          "internalType": "address",
          "name": "from",
          "type": "address"
        },
        {
          "internalType": "address",
          "name": "to",
          "type": "address"
        },
        {
          "internalType": "uint256",
          "name": "tokenId",
          "type": "uint256"
        }
      ],
      "name": "safeTransferFrom",
      "outputs": [],
      "stateMutability": "nonpayable",
      "type": "function"
    },
    {
      "inputs": [
        {
          "internalType": "address",
          "name": "from",
          "type": "address"
        },
        {
          "internalType": "address",
          "name": "to",
          "type": "address"
        },
        {
          "internalType": "uint256",
          "name": "tokenId",
          "type": "uint256"
        },
        {
          "internalType": "bytes",
          "name": "data",
          "type": "bytes"
        }
      ],
      "name": "safeTransferFrom",
      "outputs": [],
      "stateMutability": "nonpayable",
      "type": "function"
    },
    {
      "inputs": [
        {
          "internalType": "address",
          "name": "operator",
          "type": "address"
        },
        {
          "internalType": "bool",
          "name": "approved",
          "type": "bool"
        }
      ],
      "name": "setApprovalForAll",
      "outputs": [],
      "stateMutability": "nonpayable",
      "type": "function"
    },
    {
      "inputs": [
        {
          "internalType": "string",
          "name": "_newURI",
          "type": "string"
        }
      ],
      "name": "setBaseURI",
      "outputs": [],
      "stateMutability": "nonpayable",
      "type": "function"
    },
    {
      "inputs": [
        {
          "internalType": "bytes4",
          "name": "interfaceId",
          "type": "bytes4"
        }
      ],
      "name": "supportsInterface",
      "outputs": [
        {
          "internalType": "bool",
          "name": "",
          "type": "bool"
        }
      ],
      "stateMutability": "view",
      "type": "function"
    },
    {
      "inputs": [],
      "name": "symbol",
      "outputs": [
        {
          "internalType": "string",
          "name": "",
          "type": "string"
        }
      ],
      "stateMutability": "view",
      "type": "function"
    },
    {
      "inputs": [
        {
          "internalType": "uint256",
          "name": "tokenId",
          "type": "uint256"
        }
      ],
      "name": "tokenURI",
      "outputs": [
        {
          "internalType": "string",
          "name": "",
          "type": "string"
        }
      ],
      "stateMutability": "view",
      "type": "function"
    },
    {
      "inputs": [
        {
          "internalType": "address",
          "name": "from",
          "type": "address"
        },
        {
          "internalType": "address",
          "name": "to",
          "type": "address"
        },
        {
          "internalType": "uint256",
          "name": "tokenId",
          "type": "uint256"
        }
      ],
      "name": "transferFrom",
      "outputs": [],
      "stateMutability": "nonpayable",
      "type": "function"
    },
    {
      "inputs": [
        {
          "internalType": "uint256",
          "name": "_listingPrice",
          "type": "uint256"
        }
      ],
      "name": "updateListingPrice",
      "outputs": [],
      "stateMutability": "payable",
      "type": "function"
    },
    {
      "inputs": [
        {
          "internalType": "uint256",
          "name": "_mintPrice",
          "type": "uint256"
        }
      ],
      "name": "updateMintPrice",
      "outputs": [],
      "stateMutability": "payable",
      "type": "function"
    }
  ],
  "bytecode": "0x60806040526658d15e17628000600a5566b1a2bc2ec50000600b5560405180608001604052806051815260200162004aad60519139600d9081620000449190620003a6565b503480156200005257600080fd5b506040518060400160405280600c81526020017f4d756d6261692050756e6b7300000000000000000000000000000000000000008152506040518060400160405280600481526020017f4d504e4b000000000000000000000000000000000000000000000000000000008152508160009081620000d09190620003a6565b508060019081620000e29190620003a6565b50505033600c60006101000a81548173ffffffffffffffffffffffffffffffffffffffff021916908373ffffffffffffffffffffffffffffffffffffffff1602179055506200048d565b600081519050919050565b7f4e487b7100000000000000000000000000000000000000000000000000000000600052604160045260246000fd5b7f4e487b7100000000000000000000000000000000000000000000000000000000600052602260045260246000fd5b60006002820490506001821680620001ae57607f821691505b602082108103620001c457620001c362000166565b5b50919050565b60008190508160005260206000209050919050565b60006020601f8301049050919050565b600082821b905092915050565b6000600883026200022e7fffffffffffffffffffffffffffffffffffffffffffffffffffffffffffffffff82620001ef565b6200023a8683620001ef565b95508019841693508086168417925050509392505050565b6000819050919050565b6000819050919050565b600062000287620002816200027b8462000252565b6200025c565b62000252565b9050919050565b6000819050919050565b620002a38362000266565b620002bb620002b2826200028e565b848454620001fc565b825550505050565b600090565b620002d2620002c3565b620002df81848462000298565b505050565b5b818110156200030757620002fb600082620002c8565b600181019050620002e5565b5050565b601f82111562000356576200032081620001ca565b6200032b84620001df565b810160208510156200033b578190505b620003536200034a85620001df565b830182620002e4565b50505b505050565b600082821c905092915050565b60006200037b600019846008026200035b565b1980831691505092915050565b600062000396838362000368565b9150826002028217905092915050565b620003b1826200012c565b67ffffffffffffffff811115620003cd57620003cc62000137565b5b620003d9825462000195565b620003e68282856200030b565b600060209050601f8311600181146200041e576000841562000409578287015190505b62000415858262000388565b86555062000485565b601f1984166200042e86620001ca565b60005b82811015620004585784890151825560018201915060208501945060208101905062000431565b8683101562000478578489015162000474601f89168262000368565b8355505b6001600288020188555050505b505050505050565b614610806200049d6000396000f3fe6080604052600436106101655760003560e01c806345f8fa80116100d1578063a7f93ebd1161008a578063be9af53611610064578063be9af536146104f1578063c87b56dd1461050d578063cfc86f7b1461054a578063e985e9c51461057557610165565b8063a7f93ebd14610481578063ae677aa3146104ac578063b88d4fde146104c857610165565b806345f8fa801461035f57806355f804b31461038a5780636352211e146103b357806370a08231146103f057806395d89b411461042d578063a22cb4651461045857610165565b806312e855851161012357806312e855851461027f578063202e3740146102aa57806323b872dd146102d55780632d571cc4146102fe578063361c19951461031a57806342842e0e1461033657610165565b8062728e461461016a57806301ffc9a71461018657806306fdde03146101c3578063081812fc146101ee578063095ea7b31461022b5780630f08efe014610254575b600080fd5b610184600480360381019061017f9190612c82565b6105b2565b005b34801561019257600080fd5b506101ad60048036038101906101a89190612d07565b61064c565b6040516101ba9190612d4f565b60405180910390f35b3480156101cf57600080fd5b506101d861072e565b6040516101e59190612dfa565b60405180910390f35b3480156101fa57600080fd5b5061021560048036038101906102109190612c82565b6107c0565b6040516102229190612e5d565b60405180910390f35b34801561023757600080fd5b50610252600480360381019061024d9190612ea4565b610806565b005b34801561026057600080fd5b5061026961091d565b604051610276919061303a565b60405180910390f35b34801561028b57600080fd5b50610294610b6b565b6040516102a1919061306b565b60405180910390f35b3480156102b657600080fd5b506102bf610b75565b6040516102cc919061303a565b60405180910390f35b3480156102e157600080fd5b506102fc60048036038101906102f79190613086565b610e61565b005b61031860048036038101906103139190612c82565b610ec1565b005b610334600480360381019061032f91906130d9565b6110df565b005b34801561034257600080fd5b5061035d60048036038101906103589190613086565b611392565b005b34801561036b57600080fd5b506103746113b2565b604051610381919061303a565b60405180910390f35b34801561039657600080fd5b506103b160048036038101906103ac919061317e565b61169e565b005b3480156103bf57600080fd5b506103da60048036038101906103d59190612c82565b611744565b6040516103e79190612e5d565b60405180910390f35b3480156103fc57600080fd5b50610417600480360381019061041291906131cb565b6117f5565b604051610424919061306b565b60405180910390f35b34801561043957600080fd5b506104426118ac565b60405161044f9190612dfa565b60405180910390f35b34801561046457600080fd5b5061047f600480360381019061047a9190613224565b61193e565b005b34801561048d57600080fd5b50610496611954565b6040516104a3919061306b565b60405180910390f35b6104c660048036038101906104c19190612c82565b61195e565b005b3480156104d457600080fd5b506104ef60048036038101906104ea9190613394565b6119f8565b005b61050b60048036038101906105069190612c82565b611a5a565b005b34801561051957600080fd5b50610534600480360381019061052f9190612c82565b611d6e565b6040516105419190612dfa565b60405180910390f35b34801561055657600080fd5b5061055f611e15565b60405161056c9190612dfa565b60405180910390f35b34801561058157600080fd5b5061059c60048036038101906105979190613417565b611ea3565b6040516105a99190612d4f565b60405180910390f35b3373ffffffffffffffffffffffffffffffffffffffff16600c60009054906101000a900473ffffffffffffffffffffffffffffffffffffffff1673ffffffffffffffffffffffffffffffffffffffff1614610642576040517f08c379a0000000000000000000000000000000000000000000000000000000008152600401610639906134c9565b60405180910390fd5b80600b8190555050565b60007f80ac58cd000000000000000000000000000000000000000000000000000000007bffffffffffffffffffffffffffffffffffffffffffffffffffffffff1916827bffffffffffffffffffffffffffffffffffffffffffffffffffffffff1916148061071757507f5b5e139f000000000000000000000000000000000000000000000000000000007bffffffffffffffffffffffffffffffffffffffffffffffffffffffff1916827bffffffffffffffffffffffffffffffffffffffffffffffffffffffff1916145b80610727575061072682611f37565b5b9050919050565b60606000805461073d90613518565b80601f016020809104026020016040519081016040528092919081815260200182805461076990613518565b80156107b65780601f1061078b576101008083540402835291602001916107b6565b820191906000526020600020905b81548152906001019060200180831161079957829003601f168201915b5050505050905090565b60006107cb82611fa1565b6004600083815260200190815260200160002060009054906101000a900473ffffffffffffffffffffffffffffffffffffffff169050919050565b600061081182611744565b90508073ffffffffffffffffffffffffffffffffffffffff168373ffffffffffffffffffffffffffffffffffffffff1603610881576040517f08c379a0000000000000000000000000000000000000000000000000000000008152600401610878906135bb565b60405180910390fd5b8073ffffffffffffffffffffffffffffffffffffffff166108a0611fec565b73ffffffffffffffffffffffffffffffffffffffff1614806108cf57506108ce816108c9611fec565b611ea3565b5b61090e576040517f08c379a00000000000000000000000000000000000000000000000000000000081526004016109059061364d565b60405180910390fd5b6109188383611ff4565b505050565b6060600061092b60076120ad565b905060008061093a60096120ad565b67ffffffffffffffff81111561095357610952613269565b5b60405190808252806020026020018201604052801561098c57816020015b610979612bdb565b8152602001906001900390816109715790505b50905060005b83811015610b61573073ffffffffffffffffffffffffffffffffffffffff16600e60006001846109c2919061369c565b815260200190815260200160002060020160009054906101000a900473ffffffffffffffffffffffffffffffffffffffff1673ffffffffffffffffffffffffffffffffffffffff1603610b4e576000600182610a1e919061369c565b90506000600e60008381526020019081526020016000209050806040518060a0016040529081600082015481526020016001820160009054906101000a900473ffffffffffffffffffffffffffffffffffffffff1673ffffffffffffffffffffffffffffffffffffffff1673ffffffffffffffffffffffffffffffffffffffff1681526020016002820160009054906101000a900473ffffffffffffffffffffffffffffffffffffffff1673ffffffffffffffffffffffffffffffffffffffff1673ffffffffffffffffffffffffffffffffffffffff168152602001600382015481526020016004820160009054906101000a900460ff161515151581525050848681518110610b3157610b306136d0565b5b6020026020010181905250600185610b49919061369c565b945050505b8080610b59906136ff565b915050610992565b5080935050505090565b6000600a54905090565b60606000610b8360076120ad565b905060008060005b83811015610c2b573373ffffffffffffffffffffffffffffffffffffffff16600e6000600184610bbb919061369c565b815260200190815260200160002060020160009054906101000a900473ffffffffffffffffffffffffffffffffffffffff1673ffffffffffffffffffffffffffffffffffffffff1603610c1857600183610c15919061369c565b92505b8080610c23906136ff565b915050610b8b565b5060008267ffffffffffffffff811115610c4857610c47613269565b5b604051908082528060200260200182016040528015610c8157816020015b610c6e612bdb565b815260200190600190039081610c665790505b50905060005b84811015610e56573373ffffffffffffffffffffffffffffffffffffffff16600e6000600184610cb7919061369c565b815260200190815260200160002060020160009054906101000a900473ffffffffffffffffffffffffffffffffffffffff1673ffffffffffffffffffffffffffffffffffffffff1603610e43576000600182610d13919061369c565b90506000600e60008381526020019081526020016000209050806040518060a0016040529081600082015481526020016001820160009054906101000a900473ffffffffffffffffffffffffffffffffffffffff1673ffffffffffffffffffffffffffffffffffffffff1673ffffffffffffffffffffffffffffffffffffffff1681526020016002820160009054906101000a900473ffffffffffffffffffffffffffffffffffffffff1673ffffffffffffffffffffffffffffffffffffffff1673ffffffffffffffffffffffffffffffffffffffff168152602001600382015481526020016004820160009054906101000a900460ff161515151581525050848681518110610e2657610e256136d0565b5b6020026020010181905250600185610e3e919061369c565b945050505b8080610e4e906136ff565b915050610c87565b508094505050505090565b610e72610e6c611fec565b826120bb565b610eb1576040517f08c379a0000000000000000000000000000000000000000000000000000000008152600401610ea8906137b9565b60405180910390fd5b610ebc838383612150565b505050565b61138881610ecf60076120ad565b610ed9919061369c565b1115610f1a576040517f08c379a0000000000000000000000000000000000000000000000000000000008152600401610f1190613825565b60405180910390fd5b80600b54610f289190613845565b341015610f6a576040517f08c379a0000000000000000000000000000000000000000000000000000000008152600401610f61906138eb565b60405180910390fd5b60005b818110156110db57610f7f60076123b6565b6000610f8b60076120ad565b90506040518060a00160405280828152602001600073ffffffffffffffffffffffffffffffffffffffff1681526020013373ffffffffffffffffffffffffffffffffffffffff1681526020016000815260200160001515815250600e60008381526020019081526020016000206000820151816000015560208201518160010160006101000a81548173ffffffffffffffffffffffffffffffffffffffff021916908373ffffffffffffffffffffffffffffffffffffffff16021790555060408201518160020160006101000a81548173ffffffffffffffffffffffffffffffffffffffff021916908373ffffffffffffffffffffffffffffffffffffffff1602179055506060820151816003015560808201518160040160006101000a81548160ff0219169083151502179055509050506110c733826123cc565b5080806110d3906136ff565b915050610f6d565b5050565b81600e600082815260200190815260200160002060020160009054906101000a900473ffffffffffffffffffffffffffffffffffffffff1673ffffffffffffffffffffffffffffffffffffffff163373ffffffffffffffffffffffffffffffffffffffff1614611184576040517f08c379a000000000000000000000000000000000000000000000000000000000815260040161117b90613957565b60405180910390fd5b600082116111c7576040517f08c379a00000000000000000000000000000000000000000000000000000000081526004016111be906139c3565b60405180910390fd5b600a54341461120b576040517f08c379a000000000000000000000000000000000000000000000000000000000815260040161120290613a55565b60405180910390fd5b6040518060a001604052808481526020013373ffffffffffffffffffffffffffffffffffffffff1681526020013073ffffffffffffffffffffffffffffffffffffffff16815260200183815260200160001515815250600e60008581526020019081526020016000206000820151816000015560208201518160010160006101000a81548173ffffffffffffffffffffffffffffffffffffffff021916908373ffffffffffffffffffffffffffffffffffffffff16021790555060408201518160020160006101000a81548173ffffffffffffffffffffffffffffffffffffffff021916908373ffffffffffffffffffffffffffffffffffffffff1602179055506060820151816003015560808201518160040160006101000a81548160ff02191690831515021790555090505061134360096123b6565b61134e333085612150565b827fac9c6ba6615a42ba499e4fb8f4e81fca0a12708052230586867f82d2dbc6a3b133308560006040516113859493929190613a75565b60405180910390a2505050565b6113ad838383604051806020016040528060008152506119f8565b505050565b606060006113c060076120ad565b905060008060005b83811015611468573373ffffffffffffffffffffffffffffffffffffffff16600e60006001846113f8919061369c565b815260200190815260200160002060010160009054906101000a900473ffffffffffffffffffffffffffffffffffffffff1673ffffffffffffffffffffffffffffffffffffffff160361145557600183611452919061369c565b92505b8080611460906136ff565b9150506113c8565b5060008267ffffffffffffffff81111561148557611484613269565b5b6040519080825280602002602001820160405280156114be57816020015b6114ab612bdb565b8152602001906001900390816114a35790505b50905060005b84811015611693573373ffffffffffffffffffffffffffffffffffffffff16600e60006001846114f4919061369c565b815260200190815260200160002060010160009054906101000a900473ffffffffffffffffffffffffffffffffffffffff1673ffffffffffffffffffffffffffffffffffffffff1603611680576000600182611550919061369c565b90506000600e60008381526020019081526020016000209050806040518060a0016040529081600082015481526020016001820160009054906101000a900473ffffffffffffffffffffffffffffffffffffffff1673ffffffffffffffffffffffffffffffffffffffff1673ffffffffffffffffffffffffffffffffffffffff1681526020016002820160009054906101000a900473ffffffffffffffffffffffffffffffffffffffff1673ffffffffffffffffffffffffffffffffffffffff1673ffffffffffffffffffffffffffffffffffffffff168152602001600382015481526020016004820160009054906101000a900460ff161515151581525050848681518110611663576116626136d0565b5b602002602001018190525060018561167b919061369c565b945050505b808061168b906136ff565b9150506114c4565b508094505050505090565b600c60009054906101000a900473ffffffffffffffffffffffffffffffffffffffff1673ffffffffffffffffffffffffffffffffffffffff163373ffffffffffffffffffffffffffffffffffffffff161461172e576040517f08c379a000000000000000000000000000000000000000000000000000000000815260040161172590613957565b60405180910390fd5b8181600d918261173f929190613c71565b505050565b6000806002600084815260200190815260200160002060009054906101000a900473ffffffffffffffffffffffffffffffffffffffff169050600073ffffffffffffffffffffffffffffffffffffffff168173ffffffffffffffffffffffffffffffffffffffff16036117ec576040517f08c379a00000000000000000000000000000000000000000000000000000000081526004016117e390613d8d565b60405180910390fd5b80915050919050565b60008073ffffffffffffffffffffffffffffffffffffffff168273ffffffffffffffffffffffffffffffffffffffff1603611865576040517f08c379a000000000000000000000000000000000000000000000000000000000815260040161185c90613e1f565b60405180910390fd5b600360008373ffffffffffffffffffffffffffffffffffffffff1673ffffffffffffffffffffffffffffffffffffffff168152602001908152602001600020549050919050565b6060600180546118bb90613518565b80601f01602080910402602001604051908101604052809291908181526020018280546118e790613518565b80156119345780601f1061190957610100808354040283529160200191611934565b820191906000526020600020905b81548152906001019060200180831161191757829003601f168201915b5050505050905090565b611950611949611fec565b83836125a5565b5050565b6000600b54905090565b3373ffffffffffffffffffffffffffffffffffffffff16600c60009054906101000a900473ffffffffffffffffffffffffffffffffffffffff1673ffffffffffffffffffffffffffffffffffffffff16146119ee576040517f08c379a00000000000000000000000000000000000000000000000000000000081526004016119e5906134c9565b60405180910390fd5b80600a8190555050565b611a09611a03611fec565b836120bb565b611a48576040517f08c379a0000000000000000000000000000000000000000000000000000000008152600401611a3f906137b9565b60405180910390fd5b611a5484848484612711565b50505050565b6000600e60008381526020019081526020016000206003015490506000600e600084815260200190815260200160002060010160009054906101000a900473ffffffffffffffffffffffffffffffffffffffff169050813414611af2576040517f08c379a0000000000000000000000000000000000000000000000000000000008152600401611ae990613eb1565b60405180910390fd5b33600e600085815260200190815260200160002060020160006101000a81548173ffffffffffffffffffffffffffffffffffffffff021916908373ffffffffffffffffffffffffffffffffffffffff1602179055506001600e600085815260200190815260200160002060040160006101000a81548160ff0219169083151502179055506000600e600085815260200190815260200160002060010160006101000a81548173ffffffffffffffffffffffffffffffffffffffff021916908373ffffffffffffffffffffffffffffffffffffffff160217905550611bd660086123b6565b611be0600961276d565b611beb303385612150565b6000600c60009054906101000a900473ffffffffffffffffffffffffffffffffffffffff1673ffffffffffffffffffffffffffffffffffffffff16600a54604051611c3590613f02565b60006040518083038185875af1925050503d8060008114611c72576040519150601f19603f3d011682016040523d82523d6000602084013e611c77565b606091505b5050905080611cbb576040517f08c379a0000000000000000000000000000000000000000000000000000000008152600401611cb290613f63565b60405180910390fd5b60008273ffffffffffffffffffffffffffffffffffffffff1634604051611ce190613f02565b60006040518083038185875af1925050503d8060008114611d1e576040519150601f19603f3d011682016040523d82523d6000602084013e611d23565b606091505b5050905080611d67576040517f08c379a0000000000000000000000000000000000000000000000000000000008152600401611d5e90613f63565b60405180910390fd5b5050505050565b6060611d79826127c9565b611db8576040517f08c379a0000000000000000000000000000000000000000000000000000000008152600401611daf90613ff5565b60405180910390fd5b6000611dc2612835565b90506000815111611de25760405180602001604052806000815250611e0d565b80611dec846128c7565b604051602001611dfd92919061409d565b6040516020818303038152906040525b915050919050565b600d8054611e2290613518565b80601f0160208091040260200160405190810160405280929190818152602001828054611e4e90613518565b8015611e9b5780601f10611e7057610100808354040283529160200191611e9b565b820191906000526020600020905b815481529060010190602001808311611e7e57829003601f168201915b505050505081565b6000600560008473ffffffffffffffffffffffffffffffffffffffff1673ffffffffffffffffffffffffffffffffffffffff16815260200190815260200160002060008373ffffffffffffffffffffffffffffffffffffffff1673ffffffffffffffffffffffffffffffffffffffff16815260200190815260200160002060009054906101000a900460ff16905092915050565b60007f01ffc9a7000000000000000000000000000000000000000000000000000000007bffffffffffffffffffffffffffffffffffffffffffffffffffffffff1916827bffffffffffffffffffffffffffffffffffffffffffffffffffffffff1916149050919050565b611faa816127c9565b611fe9576040517f08c379a0000000000000000000000000000000000000000000000000000000008152600401611fe090613d8d565b60405180910390fd5b50565b600033905090565b816004600083815260200190815260200160002060006101000a81548173ffffffffffffffffffffffffffffffffffffffff021916908373ffffffffffffffffffffffffffffffffffffffff160217905550808273ffffffffffffffffffffffffffffffffffffffff1661206783611744565b73ffffffffffffffffffffffffffffffffffffffff167f8c5be1e5ebec7d5bd14f71427d1e84f3dd0314c0f7b2291e5b200ac8c7c3b92560405160405180910390a45050565b600081600001549050919050565b6000806120c783611744565b90508073ffffffffffffffffffffffffffffffffffffffff168473ffffffffffffffffffffffffffffffffffffffff16148061210957506121088185611ea3565b5b8061214757508373ffffffffffffffffffffffffffffffffffffffff1661212f846107c0565b73ffffffffffffffffffffffffffffffffffffffff16145b91505092915050565b8273ffffffffffffffffffffffffffffffffffffffff1661217082611744565b73ffffffffffffffffffffffffffffffffffffffff16146121c6576040517f08c379a00000000000000000000000000000000000000000000000000000000081526004016121bd9061413e565b60405180910390fd5b600073ffffffffffffffffffffffffffffffffffffffff168273ffffffffffffffffffffffffffffffffffffffff1603612235576040517f08c379a000000000000000000000000000000000000000000000000000000000815260040161222c906141d0565b60405180910390fd5b612240838383612a27565b61224b600082611ff4565b6001600360008573ffffffffffffffffffffffffffffffffffffffff1673ffffffffffffffffffffffffffffffffffffffff168152602001908152602001600020600082825461229b91906141f0565b925050819055506001600360008473ffffffffffffffffffffffffffffffffffffffff1673ffffffffffffffffffffffffffffffffffffffff16815260200190815260200160002060008282546122f2919061369c565b92505081905550816002600083815260200190815260200160002060006101000a81548173ffffffffffffffffffffffffffffffffffffffff021916908373ffffffffffffffffffffffffffffffffffffffff160217905550808273ffffffffffffffffffffffffffffffffffffffff168473ffffffffffffffffffffffffffffffffffffffff167fddf252ad1be2c89b69c2b068fc378daa952ba7f163c4a11628f55a4df523b3ef60405160405180910390a46123b1838383612a2c565b505050565b6001816000016000828254019250508190555050565b600073ffffffffffffffffffffffffffffffffffffffff168273ffffffffffffffffffffffffffffffffffffffff160361243b576040517f08c379a000000000000000000000000000000000000000000000000000000000815260040161243290614270565b60405180910390fd5b612444816127c9565b15612484576040517f08c379a000000000000000000000000000000000000000000000000000000000815260040161247b906142dc565b60405180910390fd5b61249060008383612a27565b6001600360008473ffffffffffffffffffffffffffffffffffffffff1673ffffffffffffffffffffffffffffffffffffffff16815260200190815260200160002060008282546124e0919061369c565b92505081905550816002600083815260200190815260200160002060006101000a81548173ffffffffffffffffffffffffffffffffffffffff021916908373ffffffffffffffffffffffffffffffffffffffff160217905550808273ffffffffffffffffffffffffffffffffffffffff16600073ffffffffffffffffffffffffffffffffffffffff167fddf252ad1be2c89b69c2b068fc378daa952ba7f163c4a11628f55a4df523b3ef60405160405180910390a46125a160008383612a2c565b5050565b8173ffffffffffffffffffffffffffffffffffffffff168373ffffffffffffffffffffffffffffffffffffffff1603612613576040517f08c379a000000000000000000000000000000000000000000000000000000000815260040161260a90614348565b60405180910390fd5b80600560008573ffffffffffffffffffffffffffffffffffffffff1673ffffffffffffffffffffffffffffffffffffffff16815260200190815260200160002060008473ffffffffffffffffffffffffffffffffffffffff1673ffffffffffffffffffffffffffffffffffffffff16815260200190815260200160002060006101000a81548160ff0219169083151502179055508173ffffffffffffffffffffffffffffffffffffffff168373ffffffffffffffffffffffffffffffffffffffff167f17307eab39ab6107e8899845ad3d59bd9653f200f220920489ca2b5937696c31836040516127049190612d4f565b60405180910390a3505050565b61271c848484612150565b61272884848484612a31565b612767576040517f08c379a000000000000000000000000000000000000000000000000000000000815260040161275e906143da565b60405180910390fd5b50505050565b600081600001549050600081116127b9576040517f08c379a00000000000000000000000000000000000000000000000000000000081526004016127b090614446565b60405180910390fd5b6001810382600001819055505050565b60008073ffffffffffffffffffffffffffffffffffffffff166002600084815260200190815260200160002060009054906101000a900473ffffffffffffffffffffffffffffffffffffffff1673ffffffffffffffffffffffffffffffffffffffff1614159050919050565b6060600d805461284490613518565b80601f016020809104026020016040519081016040528092919081815260200182805461287090613518565b80156128bd5780601f10612892576101008083540402835291602001916128bd565b820191906000526020600020905b8154815290600101906020018083116128a057829003601f168201915b5050505050905090565b60606000820361290e576040518060400160405280600181526020017f30000000000000000000000000000000000000000000000000000000000000008152509050612a22565b600082905060005b60008214612940578080612929906136ff565b915050600a826129399190614495565b9150612916565b60008167ffffffffffffffff81111561295c5761295b613269565b5b6040519080825280601f01601f19166020018201604052801561298e5781602001600182028036833780820191505090505b5090505b60008514612a1b576001826129a791906141f0565b9150600a856129b691906144c6565b60306129c2919061369c565b60f81b8183815181106129d8576129d76136d0565b5b60200101907effffffffffffffffffffffffffffffffffffffffffffffffffffffffffffff1916908160001a905350600a85612a149190614495565b9450612992565b8093505050505b919050565b505050565b505050565b6000612a528473ffffffffffffffffffffffffffffffffffffffff16612bb8565b15612bab578373ffffffffffffffffffffffffffffffffffffffff1663150b7a02612a7b611fec565b8786866040518563ffffffff1660e01b8152600401612a9d949392919061454c565b6020604051808303816000875af1925050508015612ad957506040513d601f19601f82011682018060405250810190612ad691906145ad565b60015b612b5b573d8060008114612b09576040519150601f19603f3d011682016040523d82523d6000602084013e612b0e565b606091505b506000815103612b53576040517f08c379a0000000000000000000000000000000000000000000000000000000008152600401612b4a906143da565b60405180910390fd5b805181602001fd5b63150b7a0260e01b7bffffffffffffffffffffffffffffffffffffffffffffffffffffffff1916817bffffffffffffffffffffffffffffffffffffffffffffffffffffffff191614915050612bb0565b600190505b949350505050565b6000808273ffffffffffffffffffffffffffffffffffffffff163b119050919050565b6040518060a0016040528060008152602001600073ffffffffffffffffffffffffffffffffffffffff168152602001600073ffffffffffffffffffffffffffffffffffffffff168152602001600081526020016000151581525090565b6000604051905090565b600080fd5b600080fd5b6000819050919050565b612c5f81612c4c565b8114612c6a57600080fd5b50565b600081359050612c7c81612c56565b92915050565b600060208284031215612c9857612c97612c42565b5b6000612ca684828501612c6d565b91505092915050565b60007fffffffff0000000000000000000000000000000000000000000000000000000082169050919050565b612ce481612caf565b8114612cef57600080fd5b50565b600081359050612d0181612cdb565b92915050565b600060208284031215612d1d57612d1c612c42565b5b6000612d2b84828501612cf2565b91505092915050565b60008115159050919050565b612d4981612d34565b82525050565b6000602082019050612d646000830184612d40565b92915050565b600081519050919050565b600082825260208201905092915050565b60005b83811015612da4578082015181840152602081019050612d89565b60008484015250505050565b6000601f19601f8301169050919050565b6000612dcc82612d6a565b612dd68185612d75565b9350612de6818560208601612d86565b612def81612db0565b840191505092915050565b60006020820190508181036000830152612e148184612dc1565b905092915050565b600073ffffffffffffffffffffffffffffffffffffffff82169050919050565b6000612e4782612e1c565b9050919050565b612e5781612e3c565b82525050565b6000602082019050612e726000830184612e4e565b92915050565b612e8181612e3c565b8114612e8c57600080fd5b50565b600081359050612e9e81612e78565b92915050565b60008060408385031215612ebb57612eba612c42565b5b6000612ec985828601612e8f565b9250506020612eda85828601612c6d565b9150509250929050565b600081519050919050565b600082825260208201905092915050565b6000819050602082019050919050565b612f1981612c4c565b82525050565b6000612f2a82612e1c565b9050919050565b612f3a81612f1f565b82525050565b612f4981612d34565b82525050565b60a082016000820151612f656000850182612f10565b506020820151612f786020850182612f31565b506040820151612f8b6040850182612f31565b506060820151612f9e6060850182612f10565b506080820151612fb16080850182612f40565b50505050565b6000612fc38383612f4f565b60a08301905092915050565b6000602082019050919050565b6000612fe782612ee4565b612ff18185612eef565b9350612ffc83612f00565b8060005b8381101561302d5781516130148882612fb7565b975061301f83612fcf565b925050600181019050613000565b5085935050505092915050565b600060208201905081810360008301526130548184612fdc565b905092915050565b61306581612c4c565b82525050565b6000602082019050613080600083018461305c565b92915050565b60008060006060848603121561309f5761309e612c42565b5b60006130ad86828701612e8f565b93505060206130be86828701612e8f565b92505060406130cf86828701612c6d565b9150509250925092565b600080604083850312156130f0576130ef612c42565b5b60006130fe85828601612c6d565b925050602061310f85828601612c6d565b9150509250929050565b600080fd5b600080fd5b600080fd5b60008083601f84011261313e5761313d613119565b5b8235905067ffffffffffffffff81111561315b5761315a61311e565b5b60208301915083600182028301111561317757613176613123565b5b9250929050565b6000806020838503121561319557613194612c42565b5b600083013567ffffffffffffffff8111156131b3576131b2612c47565b5b6131bf85828601613128565b92509250509250929050565b6000602082840312156131e1576131e0612c42565b5b60006131ef84828501612e8f565b91505092915050565b61320181612d34565b811461320c57600080fd5b50565b60008135905061321e816131f8565b92915050565b6000806040838503121561323b5761323a612c42565b5b600061324985828601612e8f565b925050602061325a8582860161320f565b9150509250929050565b600080fd5b7f4e487b7100000000000000000000000000000000000000000000000000000000600052604160045260246000fd5b6132a182612db0565b810181811067ffffffffffffffff821117156132c0576132bf613269565b5b80604052505050565b60006132d3612c38565b90506132df8282613298565b919050565b600067ffffffffffffffff8211156132ff576132fe613269565b5b61330882612db0565b9050602081019050919050565b82818337600083830152505050565b6000613337613332846132e4565b6132c9565b90508281526020810184848401111561335357613352613264565b5b61335e848285613315565b509392505050565b600082601f83011261337b5761337a613119565b5b813561338b848260208601613324565b91505092915050565b600080600080608085870312156133ae576133ad612c42565b5b60006133bc87828801612e8f565b94505060206133cd87828801612e8f565b93505060406133de87828801612c6d565b925050606085013567ffffffffffffffff8111156133ff576133fe612c47565b5b61340b87828801613366565b91505092959194509250565b6000806040838503121561342e5761342d612c42565b5b600061343c85828601612e8f565b925050602061344d85828601612e8f565b9150509250929050565b7f4f6e6c79206d61726b6574706c616365206f776e65722063616e20757064617460008201527f65206c697374696e672070726963652e00000000000000000000000000000000602082015250565b60006134b3603083612d75565b91506134be82613457565b604082019050919050565b600060208201905081810360008301526134e2816134a6565b9050919050565b7f4e487b7100000000000000000000000000000000000000000000000000000000600052602260045260246000fd5b6000600282049050600182168061353057607f821691505b602082108103613543576135426134e9565b5b50919050565b7f4552433732313a20617070726f76616c20746f2063757272656e74206f776e6560008201527f7200000000000000000000000000000000000000000000000000000000000000602082015250565b60006135a5602183612d75565b91506135b082613549565b604082019050919050565b600060208201905081810360008301526135d481613598565b9050919050565b7f4552433732313a20617070726f76652063616c6c6572206973206e6f7420746f60008201527f6b656e206f776e6572206e6f7220617070726f76656420666f7220616c6c0000602082015250565b6000613637603e83612d75565b9150613642826135db565b604082019050919050565b600060208201905081810360008301526136668161362a565b9050919050565b7f4e487b7100000000000000000000000000000000000000000000000000000000600052601160045260246000fd5b60006136a782612c4c565b91506136b283612c4c565b92508282019050808211156136ca576136c961366d565b5b92915050565b7f4e487b7100000000000000000000000000000000000000000000000000000000600052603260045260246000fd5b600061370a82612c4c565b91507fffffffffffffffffffffffffffffffffffffffffffffffffffffffffffffffff820361373c5761373b61366d565b5b600182019050919050565b7f4552433732313a2063616c6c6572206973206e6f7420746f6b656e206f776e6560008201527f72206e6f7220617070726f766564000000000000000000000000000000000000602082015250565b60006137a3602e83612d75565b91506137ae82613747565b604082019050919050565b600060208201905081810360008301526137d281613796565b9050919050565b7f4d696e742077617320636f6d706c6574656420616c7265616479000000000000600082015250565b600061380f601a83612d75565b915061381a826137d9565b602082019050919050565b6000602082019050818103600083015261383e81613802565b9050919050565b600061385082612c4c565b915061385b83612c4c565b9250817fffffffffffffffffffffffffffffffffffffffffffffffffffffffffffffffff04831182151516156138945761389361366d565b5b828202905092915050565b7f496e73756666696369656e742066756e64210000000000000000000000000000600082015250565b60006138d5601283612d75565b91506138e08261389f565b602082019050919050565b60006020820190508181036000830152613904816138c8565b9050919050565b7f496e76616c6964206f776e657221000000000000000000000000000000000000600082015250565b6000613941600e83612d75565b915061394c8261390b565b602082019050919050565b6000602082019050818103600083015261397081613934565b9050919050565b7f5072696365206d757374206265206174206c6561737420312077656900000000600082015250565b60006139ad601c83612d75565b91506139b882613977565b602082019050919050565b600060208201905081810360008301526139dc816139a0565b9050919050565b7f5072696365206d75737420626520657175616c20746f206c697374696e67207060008201527f7269636500000000000000000000000000000000000000000000000000000000602082015250565b6000613a3f602483612d75565b9150613a4a826139e3565b604082019050919050565b60006020820190508181036000830152613a6e81613a32565b9050919050565b6000608082019050613a8a6000830187612e4e565b613a976020830186612e4e565b613aa4604083018561305c565b613ab16060830184612d40565b95945050505050565b600082905092915050565b60008190508160005260206000209050919050565b60006020601f8301049050919050565b600082821b905092915050565b600060088302613b277fffffffffffffffffffffffffffffffffffffffffffffffffffffffffffffffff82613aea565b613b318683613aea565b95508019841693508086168417925050509392505050565b6000819050919050565b6000613b6e613b69613b6484612c4c565b613b49565b612c4c565b9050919050565b6000819050919050565b613b8883613b53565b613b9c613b9482613b75565b848454613af7565b825550505050565b600090565b613bb1613ba4565b613bbc818484613b7f565b505050565b5b81811015613be057613bd5600082613ba9565b600181019050613bc2565b5050565b601f821115613c2557613bf681613ac5565b613bff84613ada565b81016020851015613c0e578190505b613c22613c1a85613ada565b830182613bc1565b50505b505050565b600082821c905092915050565b6000613c4860001984600802613c2a565b1980831691505092915050565b6000613c618383613c37565b9150826002028217905092915050565b613c7b8383613aba565b67ffffffffffffffff811115613c9457613c93613269565b5b613c9e8254613518565b613ca9828285613be4565b6000601f831160018114613cd85760008415613cc6578287013590505b613cd08582613c55565b865550613d38565b601f198416613ce686613ac5565b60005b82811015613d0e57848901358255600182019150602085019450602081019050613ce9565b86831015613d2b5784890135613d27601f891682613c37565b8355505b6001600288020188555050505b50505050505050565b7f4552433732313a20696e76616c696420746f6b656e2049440000000000000000600082015250565b6000613d77601883612d75565b9150613d8282613d41565b602082019050919050565b60006020820190508181036000830152613da681613d6a565b9050919050565b7f4552433732313a2061646472657373207a65726f206973206e6f74206120766160008201527f6c6964206f776e65720000000000000000000000000000000000000000000000602082015250565b6000613e09602983612d75565b9150613e1482613dad565b604082019050919050565b60006020820190508181036000830152613e3881613dfc565b9050919050565b7f506c65617365207375626d6974207468652061736b696e67207072696365206960008201527f6e206f7264657220746f20636f6d706c65746520746865207075726368617365602082015250565b6000613e9b604083612d75565b9150613ea682613e3f565b604082019050919050565b60006020820190508181036000830152613eca81613e8e565b9050919050565b600081905092915050565b50565b6000613eec600083613ed1565b9150613ef782613edc565b600082019050919050565b6000613f0d82613edf565b9150819050919050565b7f4661696c656420746f2073656e64000000000000000000000000000000000000600082015250565b6000613f4d600e83612d75565b9150613f5882613f17565b602082019050919050565b60006020820190508181036000830152613f7c81613f40565b9050919050565b7f4552433732314d657461646174613a2055524920717565727920666f72206e6f60008201527f6e6578697374656e7420746f6b656e0000000000000000000000000000000000602082015250565b6000613fdf602f83612d75565b9150613fea82613f83565b604082019050919050565b6000602082019050818103600083015261400e81613fd2565b9050919050565b600081905092915050565b600061402b82612d6a565b6140358185614015565b9350614045818560208601612d86565b80840191505092915050565b7f2e6a736f6e000000000000000000000000000000000000000000000000000000600082015250565b6000614087600583614015565b915061409282614051565b600582019050919050565b60006140a98285614020565b91506140b58284614020565b91506140c08261407a565b91508190509392505050565b7f4552433732313a207472616e736665722066726f6d20696e636f72726563742060008201527f6f776e6572000000000000000000000000000000000000000000000000000000602082015250565b6000614128602583612d75565b9150614133826140cc565b604082019050919050565b600060208201905081810360008301526141578161411b565b9050919050565b7f4552433732313a207472616e7366657220746f20746865207a65726f2061646460008201527f7265737300000000000000000000000000000000000000000000000000000000602082015250565b60006141ba602483612d75565b91506141c58261415e565b604082019050919050565b600060208201905081810360008301526141e9816141ad565b9050919050565b60006141fb82612c4c565b915061420683612c4c565b925082820390508181111561421e5761421d61366d565b5b92915050565b7f4552433732313a206d696e7420746f20746865207a65726f2061646472657373600082015250565b600061425a602083612d75565b915061426582614224565b602082019050919050565b600060208201905081810360008301526142898161424d565b9050919050565b7f4552433732313a20746f6b656e20616c7265616479206d696e74656400000000600082015250565b60006142c6601c83612d75565b91506142d182614290565b602082019050919050565b600060208201905081810360008301526142f5816142b9565b9050919050565b7f4552433732313a20617070726f766520746f2063616c6c657200000000000000600082015250565b6000614332601983612d75565b915061433d826142fc565b602082019050919050565b6000602082019050818103600083015261436181614325565b9050919050565b7f4552433732313a207472616e7366657220746f206e6f6e20455243373231526560008201527f63656976657220696d706c656d656e7465720000000000000000000000000000602082015250565b60006143c4603283612d75565b91506143cf82614368565b604082019050919050565b600060208201905081810360008301526143f3816143b7565b9050919050565b7f436f756e7465723a2064656372656d656e74206f766572666c6f770000000000600082015250565b6000614430601b83612d75565b915061443b826143fa565b602082019050919050565b6000602082019050818103600083015261445f81614423565b9050919050565b7f4e487b7100000000000000000000000000000000000000000000000000000000600052601260045260246000fd5b60006144a082612c4c565b91506144ab83612c4c565b9250826144bb576144ba614466565b5b828204905092915050565b60006144d182612c4c565b91506144dc83612c4c565b9250826144ec576144eb614466565b5b828206905092915050565b600081519050919050565b600082825260208201905092915050565b600061451e826144f7565b6145288185614502565b9350614538818560208601612d86565b61454181612db0565b840191505092915050565b60006080820190506145616000830187612e4e565b61456e6020830186612e4e565b61457b604083018561305c565b818103606083015261458d8184614513565b905095945050505050565b6000815190506145a781612cdb565b92915050565b6000602082840312156145c3576145c2612c42565b5b60006145d184828501614598565b9150509291505056fea2646970667358221220ccd46159d32866bc3c202f2644219bb96473efac8149c61a46f72a21efceea1f64736f6c6343000810003368747470733a2f2f676174657761792e70696e6174612e636c6f75642f697066732f516d6141447a4132336156435978785a4a7755397072525052434a586b6d614e666a4c384e5376694676366f61522f",
  "linkReferences": {},
  "deployedLinkReferences": {}
}